:100000000C942A000C94D5000C9447000C944700E3
:100010000C9447000C9447000C9447000C94470044
:100020000C9447000C9447000C9447000C94470034
:100030000C9447000C9447000C9447000C94470024
:100040000C9447000C9447000C9447000C94470014
:100050000C94470011241FBECFE5D4E0DEBFCDBF16
:1000600010E0A0E6B0E0E8E8F2E002C005900D92F2
:10007000A636B107D9F710E0A6E6B0E001C01D92A0
:10008000A636B107E1F70E940B010C9442010C94D3
:100090000000282F207F28BBC298C39A20ED37E0AC
:1000A000F9013197F1F7C398F9013197F1F790E031
:1000B00044E0880F991F4A95E1F788BBC298C39A1C
:1000C000C9010197F1F7C398C9010197F1F70895A4
:1000D00082E090E00E94490088E290E00E9449009E
:1000E00086E090E00E9449008CE090E00E94490088
:1000F0000895282F207F28BBC29AC39A20ED37E0AD
:10010000F9013197F1F7C398F9013197F1F790E0D0
:1001100054E0880F991F5A95E1F788BBC29AC39A99
:10012000C9010197F1F7C398C9010197F1F7089543
:1001300081E00E94490080ED97E00197F1F7089572
:100140001F93CF93DF93EC0110E003C00E9479006E
:100150001F5FFE01E10FF11D80818823B9F7DF9158
:10016000CF911F910895CF93DF93EC0184E00E941B
:100170004900209791F480E30E9479000EC0CE01DF
:100180006AE070E00E942E01805D0E947900CE013D
:100190006AE070E00E942E01EB01209781F786E073
:1001A0000E944900DF91CF9108951F920F920FB6E0
:1001B0000F9211242F933F934F935F936F937F93ED
:1001C0008F939F93AF93BF93EF93FF930E949800F9
:1001D00080E80E94490080E690E00E94A00088EE3E
:1001E00093E028EC30E0F9013197F1F70197D9F766
:1001F0000E949800FF91EF91BF91AF919F918F91D5
:100200007F916F915F914F913F912F910F900FBE12
:100210000F901F9018958FEF87BB0E94680011BA4E
:1002200084E082BB83E08ABB789480E48BBF82E069
:1002300085BF51E028EC30E042E05BBB88EE93E004
:10024000F9013197F1F70197D9F74BBB88EE93E0AD
:10025000F9013197F1F70197D9F7EFCFAA1BBB1B33
:1002600051E107C0AA1FBB1FA617B70710F0A61BB6
:10027000B70B881F991F5A95A9F780959095BC01D7
:08028000CD010895F894FFCFB1
:060288006572726F720046
:00000001FF
